{
  "contractName": "CowNFT",
  "abi": [
    {
      "inputs": [
        {
          "internalType": "address",
          "name": "initialOwner",
          "type": "address"
        }
      ],
      "stateMutability": "nonpayable",
      "type": "constructor"
    },
    {
      "anonymous": false,
      "inputs": [
        {
          "indexed": true,
          "internalType": "address",
          "name": "owner",
          "type": "address"
        },
        {
          "indexed": true,
          "internalType": "address",
          "name": "approved",
          "type": "address"
        },
        {
          "indexed": true,
          "internalType": "uint256",
          "name": "tokenId",
          "type": "uint256"
        }
      ],
      "name": "Approval",
      "type": "event"
    },
    {
      "anonymous": false,
      "inputs": [
        {
          "indexed": true,
          "internalType": "address",
          "name": "owner",
          "type": "address"
        },
        {
          "indexed": true,
          "internalType": "address",
          "name": "operator",
          "type": "address"
        },
        {
          "indexed": false,
          "internalType": "bool",
          "name": "approved",
          "type": "bool"
        }
      ],
      "name": "ApprovalForAll",
      "type": "event"
    },
    {
      "anonymous": false,
      "inputs": [
        {
          "indexed": true,
          "internalType": "address",
          "name": "previousOwner",
          "type": "address"
        },
        {
          "indexed": true,
          "internalType": "address",
          "name": "newOwner",
          "type": "address"
        }
      ],
      "name": "OwnershipTransferred",
      "type": "event"
    },
    {
      "anonymous": false,
      "inputs": [
        {
          "indexed": true,
          "internalType": "address",
          "name": "from",
          "type": "address"
        },
        {
          "indexed": true,
          "internalType": "address",
          "name": "to",
          "type": "address"
        },
        {
          "indexed": true,
          "internalType": "uint256",
          "name": "tokenId",
          "type": "uint256"
        }
      ],
      "name": "Transfer",
      "type": "event"
    },
    {
      "inputs": [
        {
          "internalType": "address",
          "name": "to",
          "type": "address"
        },
        {
          "internalType": "uint256",
          "name": "tokenId",
          "type": "uint256"
        }
      ],
      "name": "approve",
      "outputs": [],
      "stateMutability": "nonpayable",
      "type": "function"
    },
    {
      "inputs": [
        {
          "internalType": "address",
          "name": "owner",
          "type": "address"
        }
      ],
      "name": "balanceOf",
      "outputs": [
        {
          "internalType": "uint256",
          "name": "",
          "type": "uint256"
        }
      ],
      "stateMutability": "view",
      "type": "function",
      "constant": true
    },
    {
      "inputs": [
        {
          "internalType": "uint256",
          "name": "",
          "type": "uint256"
        }
      ],
      "name": "cows",
      "outputs": [
        {
          "internalType": "string",
          "name": "name",
          "type": "string"
        },
        {
          "internalType": "uint256",
          "name": "age",
          "type": "uint256"
        },
        {
          "internalType": "string",
          "name": "gender",
          "type": "string"
        },
        {
          "internalType": "string",
          "name": "color",
          "type": "string"
        },
        {
          "internalType": "uint256",
          "name": "milkingAmount",
          "type": "uint256"
        },
        {
          "internalType": "uint256",
          "name": "udderSize",
          "type": "uint256"
        },
        {
          "internalType": "string",
          "name": "herdPart",
          "type": "string"
        },
        {
          "internalType": "bool",
          "name": "isAlive",
          "type": "bool"
        }
      ],
      "stateMutability": "view",
      "type": "function",
      "constant": true
    },
    {
      "inputs": [
        {
          "internalType": "uint256",
          "name": "tokenId",
          "type": "uint256"
        }
      ],
      "name": "getApproved",
      "outputs": [
        {
          "internalType": "address",
          "name": "",
          "type": "address"
        }
      ],
      "stateMutability": "view",
      "type": "function",
      "constant": true
    },
    {
      "inputs": [
        {
          "internalType": "address",
          "name": "owner",
          "type": "address"
        },
        {
          "internalType": "address",
          "name": "operator",
          "type": "address"
        }
      ],
      "name": "isApprovedForAll",
      "outputs": [
        {
          "internalType": "bool",
          "name": "",
          "type": "bool"
        }
      ],
      "stateMutability": "view",
      "type": "function",
      "constant": true
    },
    {
      "inputs": [],
      "name": "name",
      "outputs": [
        {
          "internalType": "string",
          "name": "",
          "type": "string"
        }
      ],
      "stateMutability": "view",
      "type": "function",
      "constant": true
    },
    {
      "inputs": [],
      "name": "nextTokenId",
      "outputs": [
        {
          "internalType": "uint256",
          "name": "",
          "type": "uint256"
        }
      ],
      "stateMutability": "view",
      "type": "function",
      "constant": true
    },
    {
      "inputs": [],
      "name": "owner",
      "outputs": [
        {
          "internalType": "address",
          "name": "",
          "type": "address"
        }
      ],
      "stateMutability": "view",
      "type": "function",
      "constant": true
    },
    {
      "inputs": [
        {
          "internalType": "uint256",
          "name": "tokenId",
          "type": "uint256"
        }
      ],
      "name": "ownerOf",
      "outputs": [
        {
          "internalType": "address",
          "name": "",
          "type": "address"
        }
      ],
      "stateMutability": "view",
      "type": "function",
      "constant": true
    },
    {
      "inputs": [],
      "name": "renounceOwnership",
      "outputs": [],
      "stateMutability": "nonpayable",
      "type": "function"
    },
    {
      "inputs": [
        {
          "internalType": "address",
          "name": "from",
          "type": "address"
        },
        {
          "internalType": "address",
          "name": "to",
          "type": "address"
        },
        {
          "internalType": "uint256",
          "name": "tokenId",
          "type": "uint256"
        }
      ],
      "name": "safeTransferFrom",
      "outputs": [],
      "stateMutability": "nonpayable",
      "type": "function"
    },
    {
      "inputs": [
        {
          "internalType": "address",
          "name": "from",
          "type": "address"
        },
        {
          "internalType": "address",
          "name": "to",
          "type": "address"
        },
        {
          "internalType": "uint256",
          "name": "tokenId",
          "type": "uint256"
        },
        {
          "internalType": "bytes",
          "name": "data",
          "type": "bytes"
        }
      ],
      "name": "safeTransferFrom",
      "outputs": [],
      "stateMutability": "nonpayable",
      "type": "function"
    },
    {
      "inputs": [
        {
          "internalType": "address",
          "name": "operator",
          "type": "address"
        },
        {
          "internalType": "bool",
          "name": "approved",
          "type": "bool"
        }
      ],
      "name": "setApprovalForAll",
      "outputs": [],
      "stateMutability": "nonpayable",
      "type": "function"
    },
    {
      "inputs": [
        {
          "internalType": "bytes4",
          "name": "interfaceId",
          "type": "bytes4"
        }
      ],
      "name": "supportsInterface",
      "outputs": [
        {
          "internalType": "bool",
          "name": "",
          "type": "bool"
        }
      ],
      "stateMutability": "view",
      "type": "function",
      "constant": true
    },
    {
      "inputs": [],
      "name": "symbol",
      "outputs": [
        {
          "internalType": "string",
          "name": "",
          "type": "string"
        }
      ],
      "stateMutability": "view",
      "type": "function",
      "constant": true
    },
    {
      "inputs": [
        {
          "internalType": "uint256",
          "name": "tokenId",
          "type": "uint256"
        }
      ],
      "name": "tokenURI",
      "outputs": [
        {
          "internalType": "string",
          "name": "",
          "type": "string"
        }
      ],
      "stateMutability": "view",
      "type": "function",
      "constant": true
    },
    {
      "inputs": [
        {
          "internalType": "address",
          "name": "from",
          "type": "address"
        },
        {
          "internalType": "address",
          "name": "to",
          "type": "address"
        },
        {
          "internalType": "uint256",
          "name": "tokenId",
          "type": "uint256"
        }
      ],
      "name": "transferFrom",
      "outputs": [],
      "stateMutability": "nonpayable",
      "type": "function"
    },
    {
      "inputs": [
        {
          "internalType": "address",
          "name": "newOwner",
          "type": "address"
        }
      ],
      "name": "transferOwnership",
      "outputs": [],
      "stateMutability": "nonpayable",
      "type": "function"
    },
    {
      "inputs": [
        {
          "internalType": "string",
          "name": "_name",
          "type": "string"
        },
        {
          "internalType": "uint256",
          "name": "_age",
          "type": "uint256"
        },
        {
          "internalType": "string",
          "name": "_gender",
          "type": "string"
        },
        {
          "internalType": "string",
          "name": "_color",
          "type": "string"
        },
        {
          "internalType": "uint256",
          "name": "_milkingAmount",
          "type": "uint256"
        },
        {
          "internalType": "uint256",
          "name": "_udderSize",
          "type": "uint256"
        },
        {
          "internalType": "string",
          "name": "_herdPart",
          "type": "string"
        }
      ],
      "name": "mintCow",
      "outputs": [],
      "stateMutability": "nonpayable",
      "type": "function"
    },
    {
      "inputs": [
        {
          "internalType": "uint256",
          "name": "tokenId",
          "type": "uint256"
        }
      ],
      "name": "getCowDetails",
      "outputs": [
        {
          "components": [
            {
              "internalType": "string",
              "name": "name",
              "type": "string"
            },
            {
              "internalType": "uint256",
              "name": "age",
              "type": "uint256"
            },
            {
              "internalType": "string",
              "name": "gender",
              "type": "string"
            },
            {
              "internalType": "string",
              "name": "color",
              "type": "string"
            },
            {
              "internalType": "uint256",
              "name": "milkingAmount",
              "type": "uint256"
            },
            {
              "internalType": "uint256",
              "name": "udderSize",
              "type": "uint256"
            },
            {
              "internalType": "string",
              "name": "herdPart",
              "type": "string"
            },
            {
              "internalType": "bool",
              "name": "isAlive",
              "type": "bool"
            }
          ],
          "internalType": "struct CowNFT.Cow",
          "name": "",
          "type": "tuple"
        }
      ],
      "stateMutability": "view",
      "type": "function",
      "constant": true
    }
  ],
  "bytecode": "0x60806040523480156200001157600080fd5b50604051620040663803806200406683398181016040528101906200003791906200038a565b6040518060400160405280600681526020017f436f774e465400000000000000000000000000000000000000000000000000008152506040518060400160405280600381526020017f434f5700000000000000000000000000000000000000000000000000000000008152508160009081620000b4919062000636565b508060019081620000c6919062000636565b505050620000e9620000dd6200010160201b60201c565b6200010960201b60201c565b620000fa81620001cf60201b60201c565b5062000838565b600033905090565b6000600660009054906101000a900473ffffffffffffffffffffffffffffffffffffffff16905081600660006101000a81548173ffffffffffffffffffffffffffffffffffffffff021916908373ffffffffffffffffffffffffffffffffffffffff1602179055508173ffffffffffffffffffffffffffffffffffffffff168173ffffffffffffffffffffffffffffffffffffffff167f8be0079c531659141344cd1fd0a4f28419497f9722a3daafe3b4186f6b6457e060405160405180910390a35050565b620001df6200026560201b60201c565b600073ffffffffffffffffffffffffffffffffffffffff168173ffffffffffffffffffffffffffffffffffffffff160362000251576040517f08c379a00000000000000000000000000000000000000000000000000000000081526004016200024890620007a4565b60405180910390fd5b62000262816200010960201b60201c565b50565b620002756200010160201b60201c565b73ffffffffffffffffffffffffffffffffffffffff166200029b620002f660201b60201c565b73ffffffffffffffffffffffffffffffffffffffff1614620002f4576040517f08c379a0000000000000000000000000000000000000000000000000000000008152600401620002eb9062000816565b60405180910390fd5b565b6000600660009054906101000a900473ffffffffffffffffffffffffffffffffffffffff16905090565b600080fd5b600073ffffffffffffffffffffffffffffffffffffffff82169050919050565b6000620003528262000325565b9050919050565b620003648162000345565b81146200037057600080fd5b50565b600081519050620003848162000359565b92915050565b600060208284031215620003a357620003a262000320565b5b6000620003b38482850162000373565b91505092915050565b600081519050919050565b7f4e487b7100000000000000000000000000000000000000000000000000000000600052604160045260246000fd5b7f4e487b7100000000000000000000000000000000000000000000000000000000600052602260045260246000fd5b600060028204905060018216806200043e57607f821691505b602082108103620004545762000453620003f6565b5b50919050565b60008190508160005260206000209050919050565b60006020601f8301049050919050565b600082821b905092915050565b600060088302620004be7fffffffffffffffffffffffffffffffffffffffffffffffffffffffffffffffff826200047f565b620004ca86836200047f565b95508019841693508086168417925050509392505050565b6000819050919050565b6000819050919050565b600062000517620005116200050b84620004e2565b620004ec565b620004e2565b9050919050565b6000819050919050565b6200053383620004f6565b6200054b62000542826200051e565b8484546200048c565b825550505050565b600090565b6200056262000553565b6200056f81848462000528565b505050565b5b8181101562000597576200058b60008262000558565b60018101905062000575565b5050565b601f821115620005e657620005b0816200045a565b620005bb846200046f565b81016020851015620005cb578190505b620005e3620005da856200046f565b83018262000574565b50505b505050565b600082821c905092915050565b60006200060b60001984600802620005eb565b1980831691505092915050565b6000620006268383620005f8565b9150826002028217905092915050565b6200064182620003bc565b67ffffffffffffffff8111156200065d576200065c620003c7565b5b62000669825462000425565b620006768282856200059b565b600060209050601f831160018114620006ae576000841562000699578287015190505b620006a5858262000618565b86555062000715565b601f198416620006be866200045a565b60005b82811015620006e857848901518255600182019150602085019450602081019050620006c1565b8683101562000708578489015162000704601f891682620005f8565b8355505b6001600288020188555050505b505050505050565b600082825260208201905092915050565b7f4f776e61626c653a206e6577206f776e657220697320746865207a65726f206160008201527f6464726573730000000000000000000000000000000000000000000000000000602082015250565b60006200078c6026836200071d565b915062000799826200072e565b604082019050919050565b60006020820190508181036000830152620007bf816200077d565b9050919050565b7f4f776e61626c653a2063616c6c6572206973206e6f7420746865206f776e6572600082015250565b6000620007fe6020836200071d565b91506200080b82620007c6565b602082019050919050565b600060208201905081810360008301526200083181620007ef565b9050919050565b61381e80620008486000396000f3fe608060405234801561001057600080fd5b506004361061012c5760003560e01c806370a08231116100ad578063a22cb46511610071578063a22cb4651461034a578063b88d4fde14610366578063c87b56dd14610382578063e985e9c5146103b2578063f2fde38b146103e25761012c565b806370a08231146102b6578063715018a6146102e657806375794a3c146102f05780638da5cb5b1461030e57806395d89b411461032c5761012c565b806323b872dd116100f457806323b872dd146101fb57806323f4aba9146102175780633b928b7b1461023357806342842e0e1461026a5780636352211e146102865761012c565b806301ffc9a714610131578063053e8f391461016157806306fdde0314610191578063081812fc146101af578063095ea7b3146101df575b600080fd5b61014b600480360381019061014691906122ff565b6103fe565b6040516101589190612347565b60405180910390f35b61017b60048036038101906101769190612398565b6104e0565b6040516101889190612538565b60405180910390f35b610199610806565b6040516101a691906125a4565b60405180910390f35b6101c960048036038101906101c49190612398565b610898565b6040516101d69190612607565b60405180910390f35b6101f960048036038101906101f4919061264e565b6108de565b005b6102156004803603810190610210919061268e565b6109f5565b005b610231600480360381019061022c9190612816565b610a55565b005b61024d60048036038101906102489190612398565b610b7b565b604051610261989796959493929190612937565b60405180910390f35b610284600480360381019061027f919061268e565b610df0565b005b6102a0600480360381019061029b9190612398565b610e10565b6040516102ad9190612607565b60405180910390f35b6102d060048036038101906102cb91906129d1565b610e96565b6040516102dd91906129fe565b60405180910390f35b6102ee610f4d565b005b6102f8610f61565b60405161030591906129fe565b60405180910390f35b610316610f67565b6040516103239190612607565b60405180910390f35b610334610f91565b60405161034191906125a4565b60405180910390f35b610364600480360381019061035f9190612a45565b611023565b005b610380600480360381019061037b9190612b26565b611039565b005b61039c60048036038101906103979190612398565b61109b565b6040516103a991906125a4565b60405180910390f35b6103cc60048036038101906103c79190612ba9565b611103565b6040516103d99190612347565b60405180910390f35b6103fc60048036038101906103f791906129d1565b611197565b005b60007f80ac58cd000000000000000000000000000000000000000000000000000000007bffffffffffffffffffffffffffffffffffffffffffffffffffffffff1916827bffffffffffffffffffffffffffffffffffffffffffffffffffffffff191614806104c957507f5b5e139f000000000000000000000000000000000000000000000000000000007bffffffffffffffffffffffffffffffffffffffffffffffffffffffff1916827bffffffffffffffffffffffffffffffffffffffffffffffffffffffff1916145b806104d957506104d88261121a565b5b9050919050565b6104e861224c565b600073ffffffffffffffffffffffffffffffffffffffff1661050983610e10565b73ffffffffffffffffffffffffffffffffffffffff160361055f576040517f08c379a000000000000000000000000000000000000000000000000000000000815260040161055690612c35565b60405180910390fd5b600760008381526020019081526020016000206040518061010001604052908160008201805461058e90612c84565b80601f01602080910402602001604051908101604052809291908181526020018280546105ba90612c84565b80156106075780601f106105dc57610100808354040283529160200191610607565b820191906000526020600020905b8154815290600101906020018083116105ea57829003601f168201915b505050505081526020016001820154815260200160028201805461062a90612c84565b80601f016020809104026020016040519081016040528092919081815260200182805461065690612c84565b80156106a35780601f10610678576101008083540402835291602001916106a3565b820191906000526020600020905b81548152906001019060200180831161068657829003601f168201915b505050505081526020016003820180546106bc90612c84565b80601f01602080910402602001604051908101604052809291908181526020018280546106e890612c84565b80156107355780601f1061070a57610100808354040283529160200191610735565b820191906000526020600020905b81548152906001019060200180831161071857829003601f168201915b50505050508152602001600482015481526020016005820154815260200160068201805461076290612c84565b80601f016020809104026020016040519081016040528092919081815260200182805461078e90612c84565b80156107db5780601f106107b0576101008083540402835291602001916107db565b820191906000526020600020905b8154815290600101906020018083116107be57829003601f168201915b505050505081526020016007820160009054906101000a900460ff1615151515815250509050919050565b60606000805461081590612c84565b80601f016020809104026020016040519081016040528092919081815260200182805461084190612c84565b801561088e5780601f106108635761010080835404028352916020019161088e565b820191906000526020600020905b81548152906001019060200180831161087157829003601f168201915b5050505050905090565b60006108a382611284565b6004600083815260200190815260200160002060009054906101000a900473ffffffffffffffffffffffffffffffffffffffff169050919050565b60006108e982610e10565b90508073ffffffffffffffffffffffffffffffffffffffff168373ffffffffffffffffffffffffffffffffffffffff1603610959576040517f08c379a000000000000000000000000000000000000000000000000000000000815260040161095090612d27565b60405180910390fd5b8073ffffffffffffffffffffffffffffffffffffffff166109786112cf565b73ffffffffffffffffffffffffffffffffffffffff1614806109a757506109a6816109a16112cf565b611103565b5b6109e6576040517f08c379a00000000000000000000000000000000000000000000000000000000081526004016109dd90612db9565b60405180910390fd5b6109f083836112d7565b505050565b610a06610a006112cf565b82611390565b610a45576040517f08c379a0000000000000000000000000000000000000000000000000000000008152600401610a3c90612e4b565b60405180910390fd5b610a50838383611425565b505050565b610a5d61171e565b60006008549050600160086000828254610a779190612e9a565b92505081905550610a88338261179c565b60405180610100016040528089815260200188815260200187815260200186815260200185815260200184815260200183815260200160011515815250600760008381526020019081526020016000206000820151816000019081610aed919061307a565b50602082015181600101556040820151816002019081610b0d919061307a565b506060820151816003019081610b23919061307a565b506080820151816004015560a0820151816005015560c0820151816006019081610b4d919061307a565b5060e08201518160070160006101000a81548160ff0219169083151502179055509050505050505050505050565b6007602052806000526040600020600091509050806000018054610b9e90612c84565b80601f0160208091040260200160405190810160405280929190818152602001828054610bca90612c84565b8015610c175780601f10610bec57610100808354040283529160200191610c17565b820191906000526020600020905b815481529060010190602001808311610bfa57829003601f168201915b505050505090806001015490806002018054610c3290612c84565b80601f0160208091040260200160405190810160405280929190818152602001828054610c5e90612c84565b8015610cab5780601f10610c8057610100808354040283529160200191610cab565b820191906000526020600020905b815481529060010190602001808311610c8e57829003601f168201915b505050505090806003018054610cc090612c84565b80601f0160208091040260200160405190810160405280929190818152602001828054610cec90612c84565b8015610d395780601f10610d0e57610100808354040283529160200191610d39565b820191906000526020600020905b815481529060010190602001808311610d1c57829003601f168201915b505050505090806004015490806005015490806006018054610d5a90612c84565b80601f0160208091040260200160405190810160405280929190818152602001828054610d8690612c84565b8015610dd35780601f10610da857610100808354040283529160200191610dd3565b820191906000526020600020905b815481529060010190602001808311610db657829003601f168201915b5050505050908060070160009054906101000a900460ff16905088565b610e0b83838360405180602001604052806000815250611039565b505050565b600080610e1c836117ba565b9050600073ffffffffffffffffffffffffffffffffffffffff168173ffffffffffffffffffffffffffffffffffffffff1603610e8d576040517f08c379a0000000000000000000000000000000000000000000000000000000008152600401610e8490613198565b60405180910390fd5b80915050919050565b60008073ffffffffffffffffffffffffffffffffffffffff168273ffffffffffffffffffffffffffffffffffffffff1603610f06576040517f08c379a0000000000000000000000000000000000000000000000000000000008152600401610efd9061322a565b60405180910390fd5b600360008373ffffffffffffffffffffffffffffffffffffffff1673ffffffffffffffffffffffffffffffffffffffff168152602001908152602001600020549050919050565b610f5561171e565b610f5f60006117f7565b565b60085481565b6000600660009054906101000a900473ffffffffffffffffffffffffffffffffffffffff16905090565b606060018054610fa090612c84565b80601f0160208091040260200160405190810160405280929190818152602001828054610fcc90612c84565b80156110195780601f10610fee57610100808354040283529160200191611019565b820191906000526020600020905b815481529060010190602001808311610ffc57829003601f168201915b5050505050905090565b61103561102e6112cf565b83836118bd565b5050565b61104a6110446112cf565b83611390565b611089576040517f08c379a000000000000000000000000000000000000000000000000000000000815260040161108090612e4b565b60405180910390fd5b61109584848484611a29565b50505050565b60606110a682611284565b60006110b0611a85565b905060008151116110d057604051806020016040528060008152506110fb565b806110da84611a9c565b6040516020016110eb929190613286565b6040516020818303038152906040525b915050919050565b6000600560008473ffffffffffffffffffffffffffffffffffffffff1673ffffffffffffffffffffffffffffffffffffffff16815260200190815260200160002060008373ffffffffffffffffffffffffffffffffffffffff1673ffffffffffffffffffffffffffffffffffffffff16815260200190815260200160002060009054906101000a900460ff16905092915050565b61119f61171e565b600073ffffffffffffffffffffffffffffffffffffffff168173ffffffffffffffffffffffffffffffffffffffff160361120e576040517f08c379a00000000000000000000000000000000000000000000000000000000081526004016112059061331c565b60405180910390fd5b611217816117f7565b50565b60007f01ffc9a7000000000000000000000000000000000000000000000000000000007bffffffffffffffffffffffffffffffffffffffffffffffffffffffff1916827bffffffffffffffffffffffffffffffffffffffffffffffffffffffff1916149050919050565b61128d81611b6a565b6112cc576040517f08c379a00000000000000000000000000000000000000000000000000000000081526004016112c390613198565b60405180910390fd5b50565b600033905090565b816004600083815260200190815260200160002060006101000a81548173ffffffffffffffffffffffffffffffffffffffff021916908373ffffffffffffffffffffffffffffffffffffffff160217905550808273ffffffffffffffffffffffffffffffffffffffff1661134a83610e10565b73ffffffffffffffffffffffffffffffffffffffff167f8c5be1e5ebec7d5bd14f71427d1e84f3dd0314c0f7b2291e5b200ac8c7c3b92560405160405180910390a45050565b60008061139c83610e10565b90508073ffffffffffffffffffffffffffffffffffffffff168473ffffffffffffffffffffffffffffffffffffffff1614806113de57506113dd8185611103565b5b8061141c57508373ffffffffffffffffffffffffffffffffffffffff1661140484610898565b73ffffffffffffffffffffffffffffffffffffffff16145b91505092915050565b8273ffffffffffffffffffffffffffffffffffffffff1661144582610e10565b73ffffffffffffffffffffffffffffffffffffffff161461149b576040517f08c379a0000000000000000000000000000000000000000000000000000000008152600401611492906133ae565b60405180910390fd5b600073ffffffffffffffffffffffffffffffffffffffff168273ffffffffffffffffffffffffffffffffffffffff160361150a576040517f08c379a000000000000000000000000000000000000000000000000000000000815260040161150190613440565b60405180910390fd5b6115178383836001611bab565b8273ffffffffffffffffffffffffffffffffffffffff1661153782610e10565b73ffffffffffffffffffffffffffffffffffffffff161461158d576040517f08c379a0000000000000000000000000000000000000000000000000000000008152600401611584906133ae565b60405180910390fd5b6004600082815260200190815260200160002060006101000a81549073ffffffffffffffffffffffffffffffffffffffff02191690556001600360008573ffffffffffffffffffffffffffffffffffffffff1673ffffffffffffffffffffffffffffffffffffffff168152602001908152602001600020600082825403925050819055506001600360008473ffffffffffffffffffffffffffffffffffffffff1673ffffffffffffffffffffffffffffffffffffffff16815260200190815260200160002060008282540192505081905550816002600083815260200190815260200160002060006101000a81548173ffffffffffffffffffffffffffffffffffffffff021916908373ffffffffffffffffffffffffffffffffffffffff160217905550808273ffffffffffffffffffffffffffffffffffffffff168473ffffffffffffffffffffffffffffffffffffffff167fddf252ad1be2c89b69c2b068fc378daa952ba7f163c4a11628f55a4df523b3ef60405160405180910390a46117198383836001611cd1565b505050565b6117266112cf565b73ffffffffffffffffffffffffffffffffffffffff16611744610f67565b73ffffffffffffffffffffffffffffffffffffffff161461179a576040517f08c379a0000000000000000000000000000000000000000000000000000000008152600401611791906134ac565b60405180910390fd5b565b6117b6828260405180602001604052806000815250611cd7565b5050565b60006002600083815260200190815260200160002060009054906101000a900473ffffffffffffffffffffffffffffffffffffffff169050919050565b6000600660009054906101000a900473ffffffffffffffffffffffffffffffffffffffff16905081600660006101000a81548173ffffffffffffffffffffffffffffffffffffffff021916908373ffffffffffffffffffffffffffffffffffffffff1602179055508173ffffffffffffffffffffffffffffffffffffffff168173ffffffffffffffffffffffffffffffffffffffff167f8be0079c531659141344cd1fd0a4f28419497f9722a3daafe3b4186f6b6457e060405160405180910390a35050565b8173ffffffffffffffffffffffffffffffffffffffff168373ffffffffffffffffffffffffffffffffffffffff160361192b576040517f08c379a000000000000000000000000000000000000000000000000000000000815260040161192290613518565b60405180910390fd5b80600560008573ffffffffffffffffffffffffffffffffffffffff1673ffffffffffffffffffffffffffffffffffffffff16815260200190815260200160002060008473ffffffffffffffffffffffffffffffffffffffff1673ffffffffffffffffffffffffffffffffffffffff16815260200190815260200160002060006101000a81548160ff0219169083151502179055508173ffffffffffffffffffffffffffffffffffffffff168373ffffffffffffffffffffffffffffffffffffffff167f17307eab39ab6107e8899845ad3d59bd9653f200f220920489ca2b5937696c3183604051611a1c9190612347565b60405180910390a3505050565b611a34848484611425565b611a4084848484611d32565b611a7f576040517f08c379a0000000000000000000000000000000000000000000000000000000008152600401611a76906135aa565b60405180910390fd5b50505050565b606060405180602001604052806000815250905090565b606060006001611aab84611eb9565b01905060008167ffffffffffffffff811115611aca57611ac96126eb565b5b6040519080825280601f01601f191660200182016040528015611afc5781602001600182028036833780820191505090505b509050600082602001820190505b600115611b5f578080600190039150507f3031323334353637383961626364656600000000000000000000000000000000600a86061a8153600a8581611b5357611b526135ca565b5b04945060008503611b0a575b819350505050919050565b60008073ffffffffffffffffffffffffffffffffffffffff16611b8c836117ba565b73ffffffffffffffffffffffffffffffffffffffff1614159050919050565b6001811115611ccb57600073ffffffffffffffffffffffffffffffffffffffff168473ffffffffffffffffffffffffffffffffffffffff1614611c3f5780600360008673ffffffffffffffffffffffffffffffffffffffff1673ffffffffffffffffffffffffffffffffffffffff1681526020019081526020016000206000828254611c3791906135f9565b925050819055505b600073ffffffffffffffffffffffffffffffffffffffff168373ffffffffffffffffffffffffffffffffffffffff1614611cca5780600360008573ffffffffffffffffffffffffffffffffffffffff1673ffffffffffffffffffffffffffffffffffffffff1681526020019081526020016000206000828254611cc29190612e9a565b925050819055505b5b50505050565b50505050565b611ce1838361200c565b611cee6000848484611d32565b611d2d576040517f08c379a0000000000000000000000000000000000000000000000000000000008152600401611d24906135aa565b60405180910390fd5b505050565b6000611d538473ffffffffffffffffffffffffffffffffffffffff16612229565b15611eac578373ffffffffffffffffffffffffffffffffffffffff1663150b7a02611d7c6112cf565b8786866040518563ffffffff1660e01b8152600401611d9e9493929190613682565b6020604051808303816000875af1925050508015611dda57506040513d601f19601f82011682018060405250810190611dd791906136e3565b60015b611e5c573d8060008114611e0a576040519150601f19603f3d011682016040523d82523d6000602084013e611e0f565b606091505b506000815103611e54576040517f08c379a0000000000000000000000000000000000000000000000000000000008152600401611e4b906135aa565b60405180910390fd5b805181602001fd5b63150b7a0260e01b7bffffffffffffffffffffffffffffffffffffffffffffffffffffffff1916817bffffffffffffffffffffffffffffffffffffffffffffffffffffffff191614915050611eb1565b600190505b949350505050565b600080600090507a184f03e93ff9f4daa797ed6e38ed64bf6a1f0100000000000000008310611f17577a184f03e93ff9f4daa797ed6e38ed64bf6a1f0100000000000000008381611f0d57611f0c6135ca565b5b0492506040810190505b6d04ee2d6d415b85acef81000000008310611f54576d04ee2d6d415b85acef81000000008381611f4a57611f496135ca565b5b0492506020810190505b662386f26fc100008310611f8357662386f26fc100008381611f7957611f786135ca565b5b0492506010810190505b6305f5e1008310611fac576305f5e1008381611fa257611fa16135ca565b5b0492506008810190505b6127108310611fd1576127108381611fc757611fc66135ca565b5b0492506004810190505b60648310611ff45760648381611fea57611fe96135ca565b5b0492506002810190505b600a8310612003576001810190505b80915050919050565b600073ffffffffffffffffffffffffffffffffffffffff168273ffffffffffffffffffffffffffffffffffffffff160361207b576040517f08c379a00000000000000000000000000000000000000000000000000000000081526004016120729061375c565b60405180910390fd5b61208481611b6a565b156120c4576040517f08c379a00000000000000000000000000000000000000000000000000000000081526004016120bb906137c8565b60405180910390fd5b6120d2600083836001611bab565b6120db81611b6a565b1561211b576040517f08c379a0000000000000000000000000000000000000000000000000000000008152600401612112906137c8565b60405180910390fd5b6001600360008473ffffffffffffffffffffffffffffffffffffffff1673ffffffffffffffffffffffffffffffffffffffff16815260200190815260200160002060008282540192505081905550816002600083815260200190815260200160002060006101000a81548173ffffffffffffffffffffffffffffffffffffffff021916908373ffffffffffffffffffffffffffffffffffffffff160217905550808273ffffffffffffffffffffffffffffffffffffffff16600073ffffffffffffffffffffffffffffffffffffffff167fddf252ad1be2c89b69c2b068fc378daa952ba7f163c4a11628f55a4df523b3ef60405160405180910390a4612225600083836001611cd1565b5050565b6000808273ffffffffffffffffffffffffffffffffffffffff163b119050919050565b604051806101000160405280606081526020016000815260200160608152602001606081526020016000815260200160008152602001606081526020016000151581525090565b6000604051905090565b600080fd5b600080fd5b60007fffffffff0000000000000000000000000000000000000000000000000000000082169050919050565b6122dc816122a7565b81146122e757600080fd5b50565b6000813590506122f9816122d3565b92915050565b6000602082840312156123155761231461229d565b5b6000612323848285016122ea565b91505092915050565b60008115159050919050565b6123418161232c565b82525050565b600060208201905061235c6000830184612338565b92915050565b6000819050919050565b61237581612362565b811461238057600080fd5b50565b6000813590506123928161236c565b92915050565b6000602082840312156123ae576123ad61229d565b5b60006123bc84828501612383565b91505092915050565b600081519050919050565b600082825260208201905092915050565b60005b838110156123ff5780820151818401526020810190506123e4565b60008484015250505050565b6000601f19601f8301169050919050565b6000612427826123c5565b61243181856123d0565b93506124418185602086016123e1565b61244a8161240b565b840191505092915050565b61245e81612362565b82525050565b61246d8161232c565b82525050565b6000610100830160008301518482036000860152612491828261241c565b91505060208301516124a66020860182612455565b50604083015184820360408601526124be828261241c565b915050606083015184820360608601526124d8828261241c565b91505060808301516124ed6080860182612455565b5060a083015161250060a0860182612455565b5060c083015184820360c0860152612518828261241c565b91505060e083015161252d60e0860182612464565b508091505092915050565b600060208201905081810360008301526125528184612473565b905092915050565b600082825260208201905092915050565b6000612576826123c5565b612580818561255a565b93506125908185602086016123e1565b6125998161240b565b840191505092915050565b600060208201905081810360008301526125be818461256b565b905092915050565b600073ffffffffffffffffffffffffffffffffffffffff82169050919050565b60006125f1826125c6565b9050919050565b612601816125e6565b82525050565b600060208201905061261c60008301846125f8565b92915050565b61262b816125e6565b811461263657600080fd5b50565b60008135905061264881612622565b92915050565b600080604083850312156126655761266461229d565b5b600061267385828601612639565b925050602061268485828601612383565b9150509250929050565b6000806000606084860312156126a7576126a661229d565b5b60006126b586828701612639565b93505060206126c686828701612639565b92505060406126d786828701612383565b9150509250925092565b600080fd5b600080fd5b7f4e487b7100000000000000000000000000000000000000000000000000000000600052604160045260246000fd5b6127238261240b565b810181811067ffffffffffffffff82111715612742576127416126eb565b5b80604052505050565b6000612755612293565b9050612761828261271a565b919050565b600067ffffffffffffffff821115612781576127806126eb565b5b61278a8261240b565b9050602081019050919050565b82818337600083830152505050565b60006127b96127b484612766565b61274b565b9050828152602081018484840111156127d5576127d46126e6565b5b6127e0848285612797565b509392505050565b600082601f8301126127fd576127fc6126e1565b5b813561280d8482602086016127a6565b91505092915050565b600080600080600080600060e0888a0312156128355761283461229d565b5b600088013567ffffffffffffffff811115612853576128526122a2565b5b61285f8a828b016127e8565b97505060206128708a828b01612383565b965050604088013567ffffffffffffffff811115612891576128906122a2565b5b61289d8a828b016127e8565b955050606088013567ffffffffffffffff8111156128be576128bd6122a2565b5b6128ca8a828b016127e8565b94505060806128db8a828b01612383565b93505060a06128ec8a828b01612383565b92505060c088013567ffffffffffffffff81111561290d5761290c6122a2565b5b6129198a828b016127e8565b91505092959891949750929550565b61293181612362565b82525050565b6000610100820190508181036000830152612952818b61256b565b9050612961602083018a612928565b8181036040830152612973818961256b565b90508181036060830152612987818861256b565b90506129966080830187612928565b6129a360a0830186612928565b81810360c08301526129b5818561256b565b90506129c460e0830184612338565b9998505050505050505050565b6000602082840312156129e7576129e661229d565b5b60006129f584828501612639565b91505092915050565b6000602082019050612a136000830184612928565b92915050565b612a228161232c565b8114612a2d57600080fd5b50565b600081359050612a3f81612a19565b92915050565b60008060408385031215612a5c57612a5b61229d565b5b6000612a6a85828601612639565b9250506020612a7b85828601612a30565b9150509250929050565b600067ffffffffffffffff821115612aa057612a9f6126eb565b5b612aa98261240b565b9050602081019050919050565b6000612ac9612ac484612a85565b61274b565b905082815260208101848484011115612ae557612ae46126e6565b5b612af0848285612797565b509392505050565b600082601f830112612b0d57612b0c6126e1565b5b8135612b1d848260208601612ab6565b91505092915050565b60008060008060808587031215612b4057612b3f61229d565b5b6000612b4e87828801612639565b9450506020612b5f87828801612639565b9350506040612b7087828801612383565b925050606085013567ffffffffffffffff811115612b9157612b906122a2565b5b612b9d87828801612af8565b91505092959194509250565b60008060408385031215612bc057612bbf61229d565b5b6000612bce85828601612639565b9250506020612bdf85828601612639565b9150509250929050565b7f436f774e46543a20546f6b656e20646f6573206e6f7420657869737400000000600082015250565b6000612c1f601c8361255a565b9150612c2a82612be9565b602082019050919050565b60006020820190508181036000830152612c4e81612c12565b9050919050565b7f4e487b7100000000000000000000000000000000000000000000000000000000600052602260045260246000fd5b60006002820490506001821680612c9c57607f821691505b602082108103612caf57612cae612c55565b5b50919050565b7f4552433732313a20617070726f76616c20746f2063757272656e74206f776e6560008201527f7200000000000000000000000000000000000000000000000000000000000000602082015250565b6000612d1160218361255a565b9150612d1c82612cb5565b604082019050919050565b60006020820190508181036000830152612d4081612d04565b9050919050565b7f4552433732313a20617070726f76652063616c6c6572206973206e6f7420746f60008201527f6b656e206f776e6572206f7220617070726f76656420666f7220616c6c000000602082015250565b6000612da3603d8361255a565b9150612dae82612d47565b604082019050919050565b60006020820190508181036000830152612dd281612d96565b9050919050565b7f4552433732313a2063616c6c6572206973206e6f7420746f6b656e206f776e6560008201527f72206f7220617070726f76656400000000000000000000000000000000000000602082015250565b6000612e35602d8361255a565b9150612e4082612dd9565b604082019050919050565b60006020820190508181036000830152612e6481612e28565b9050919050565b7f4e487b7100000000000000000000000000000000000000000000000000000000600052601160045260246000fd5b6000612ea582612362565b9150612eb083612362565b9250828201905080821115612ec857612ec7612e6b565b5b92915050565b60008190508160005260206000209050919050565b60006020601f8301049050919050565b600082821b905092915050565b600060088302612f307fffffffffffffffffffffffffffffffffffffffffffffffffffffffffffffffff82612ef3565b612f3a8683612ef3565b95508019841693508086168417925050509392505050565b6000819050919050565b6000612f77612f72612f6d84612362565b612f52565b612362565b9050919050565b6000819050919050565b612f9183612f5c565b612fa5612f9d82612f7e565b848454612f00565b825550505050565b600090565b612fba612fad565b612fc5818484612f88565b505050565b5b81811015612fe957612fde600082612fb2565b600181019050612fcb565b5050565b601f82111561302e57612fff81612ece565b61300884612ee3565b81016020851015613017578190505b61302b61302385612ee3565b830182612fca565b50505b505050565b600082821c905092915050565b600061305160001984600802613033565b1980831691505092915050565b600061306a8383613040565b9150826002028217905092915050565b613083826123c5565b67ffffffffffffffff81111561309c5761309b6126eb565b5b6130a68254612c84565b6130b1828285612fed565b600060209050601f8311600181146130e457600084156130d2578287015190505b6130dc858261305e565b865550613144565b601f1984166130f286612ece565b60005b8281101561311a578489015182556001820191506020850194506020810190506130f5565b868310156131375784890151613133601f891682613040565b8355505b6001600288020188555050505b505050505050565b7f4552433732313a20696e76616c696420746f6b656e2049440000000000000000600082015250565b600061318260188361255a565b915061318d8261314c565b602082019050919050565b600060208201905081810360008301526131b181613175565b9050919050565b7f4552433732313a2061646472657373207a65726f206973206e6f74206120766160008201527f6c6964206f776e65720000000000000000000000000000000000000000000000602082015250565b600061321460298361255a565b915061321f826131b8565b604082019050919050565b6000602082019050818103600083015261324381613207565b9050919050565b600081905092915050565b6000613260826123c5565b61326a818561324a565b935061327a8185602086016123e1565b80840191505092915050565b60006132928285613255565b915061329e8284613255565b91508190509392505050565b7f4f776e61626c653a206e6577206f776e657220697320746865207a65726f206160008201527f6464726573730000000000000000000000000000000000000000000000000000602082015250565b600061330660268361255a565b9150613311826132aa565b604082019050919050565b60006020820190508181036000830152613335816132f9565b9050919050565b7f4552433732313a207472616e736665722066726f6d20696e636f72726563742060008201527f6f776e6572000000000000000000000000000000000000000000000000000000602082015250565b600061339860258361255a565b91506133a38261333c565b604082019050919050565b600060208201905081810360008301526133c78161338b565b9050919050565b7f4552433732313a207472616e7366657220746f20746865207a65726f2061646460008201527f7265737300000000000000000000000000000000000000000000000000000000602082015250565b600061342a60248361255a565b9150613435826133ce565b604082019050919050565b600060208201905081810360008301526134598161341d565b9050919050565b7f4f776e61626c653a2063616c6c6572206973206e6f7420746865206f776e6572600082015250565b600061349660208361255a565b91506134a182613460565b602082019050919050565b600060208201905081810360008301526134c581613489565b9050919050565b7f4552433732313a20617070726f766520746f2063616c6c657200000000000000600082015250565b600061350260198361255a565b915061350d826134cc565b602082019050919050565b60006020820190508181036000830152613531816134f5565b9050919050565b7f4552433732313a207472616e7366657220746f206e6f6e20455243373231526560008201527f63656976657220696d706c656d656e7465720000000000000000000000000000602082015250565b600061359460328361255a565b915061359f82613538565b604082019050919050565b600060208201905081810360008301526135c381613587565b9050919050565b7f4e487b7100000000000000000000000000000000000000000000000000000000600052601260045260246000fd5b600061360482612362565b915061360f83612362565b925082820390508181111561362757613626612e6b565b5b92915050565b600081519050919050565b600082825260208201905092915050565b60006136548261362d565b61365e8185613638565b935061366e8185602086016123e1565b6136778161240b565b840191505092915050565b600060808201905061369760008301876125f8565b6136a460208301866125f8565b6136b16040830185612928565b81810360608301526136c38184613649565b905095945050505050565b6000815190506136dd816122d3565b92915050565b6000602082840312156136f9576136f861229d565b5b6000613707848285016136ce565b91505092915050565b7f4552433732313a206d696e7420746f20746865207a65726f2061646472657373600082015250565b600061374660208361255a565b915061375182613710565b602082019050919050565b6000602082019050818103600083015261377581613739565b9050919050565b7f4552433732313a20746f6b656e20616c7265616479206d696e74656400000000600082015250565b60006137b2601c8361255a565b91506137bd8261377c565b602082019050919050565b600060208201905081810360008301526137e1816137a5565b905091905056fea26469706673582212207b59a74bf656281cedc26de5dcf01b829bb62726a64018f73356dd40bf1d5cfd64736f6c63430008130033",
  "immutableReferences": {},
  "source": "// SPDX-License-Identifier: MIT\npragma solidity ^0.8.0;\n\nimport \"@openzeppelin/contracts/token/ERC721/ERC721.sol\";\nimport \"@openzeppelin/contracts/access/Ownable.sol\";\n\ncontract CowNFT is ERC721, Ownable {\n    struct Cow {\n        string name;\n        uint256 age;\n        string gender;\n        string color;\n        uint256 milkingAmount;\n        uint256 udderSize;\n        string herdPart;\n        bool isAlive;\n    }\n\n    mapping(uint256 => Cow) public cows;\n    uint256 public nextTokenId;\n\n    // Constructor accepts the initial owner address\n    constructor(address initialOwner) ERC721(\"CowNFT\", \"COW\") {\n        transferOwnership(initialOwner);\n    }\n\n    function mintCow(\n        string memory _name,\n        uint256 _age,\n        string memory _gender,\n        string memory _color,\n        uint256 _milkingAmount,\n        uint256 _udderSize,\n        string memory _herdPart\n    ) public onlyOwner {\n        uint256 tokenId = nextTokenId;\n        nextTokenId += 1;\n\n        _safeMint(msg.sender, tokenId);\n\n        cows[tokenId] = Cow({\n            name: _name,\n            age: _age,\n            gender: _gender,\n            color: _color,\n            milkingAmount: _milkingAmount,\n            udderSize: _udderSize,\n            herdPart: _herdPart,\n            isAlive: true\n        });\n    }\n\n    function getCowDetails(uint256 tokenId) public view returns (Cow memory) {\n        // Check if the token exists by ensuring that the owner is not the zero address\n        require(ownerOf(tokenId) != address(0), \"CowNFT: Token does not exist\");\n        return cows[tokenId];\n    }\n}\n",
  "sourcePath": "/Users/maros/HoofProof/hoofproof/contracts/cow.sol",
  "compiler": {
    "name": "solc",
    "version": "0.8.19+commit.7dd6d404.Emscripten.clang"
  },
  "schemaVersion": "3.4.16",
  "updatedAt": "2024-07-27T15:38:35.996Z",
  "networkType": "ethereum",
  "devdoc": {
    "events": {
      "Approval(address,address,uint256)": {
        "details": "Emitted when `owner` enables `approved` to manage the `tokenId` token."
      },
      "ApprovalForAll(address,address,bool)": {
        "details": "Emitted when `owner` enables or disables (`approved`) `operator` to manage all of its assets."
      },
      "Transfer(address,address,uint256)": {
        "details": "Emitted when `tokenId` token is transferred from `from` to `to`."
      }
    },
    "kind": "dev",
    "methods": {
      "approve(address,uint256)": {
        "details": "See {IERC721-approve}."
      },
      "balanceOf(address)": {
        "details": "See {IERC721-balanceOf}."
      },
      "getApproved(uint256)": {
        "details": "See {IERC721-getApproved}."
      },
      "isApprovedForAll(address,address)": {
        "details": "See {IERC721-isApprovedForAll}."
      },
      "name()": {
        "details": "See {IERC721Metadata-name}."
      },
      "owner()": {
        "details": "Returns the address of the current owner."
      },
      "ownerOf(uint256)": {
        "details": "See {IERC721-ownerOf}."
      },
      "renounceOwnership()": {
        "details": "Leaves the contract without owner. It will not be possible to call `onlyOwner` functions anymore. Can only be called by the current owner. NOTE: Renouncing ownership will leave the contract without an owner, thereby removing any functionality that is only available to the owner."
      },
      "safeTransferFrom(address,address,uint256)": {
        "details": "See {IERC721-safeTransferFrom}."
      },
      "safeTransferFrom(address,address,uint256,bytes)": {
        "details": "See {IERC721-safeTransferFrom}."
      },
      "setApprovalForAll(address,bool)": {
        "details": "See {IERC721-setApprovalForAll}."
      },
      "supportsInterface(bytes4)": {
        "details": "See {IERC165-supportsInterface}."
      },
      "symbol()": {
        "details": "See {IERC721Metadata-symbol}."
      },
      "tokenURI(uint256)": {
        "details": "See {IERC721Metadata-tokenURI}."
      },
      "transferFrom(address,address,uint256)": {
        "details": "See {IERC721-transferFrom}."
      },
      "transferOwnership(address)": {
        "details": "Transfers ownership of the contract to a new account (`newOwner`). Can only be called by the current owner."
      }
    },
    "version": 1
  },
  "userdoc": {
    "kind": "user",
    "methods": {},
    "version": 1
  }
}